:020000040800F2
:1000000000280020290A0008B1080008B7080008E5
:10001000BD080008C3080008C90800080000000067
:10002000000000000000000000000000CF080008F1
:10003000DB08000800000000E7080008F3080008DB
:10004000710A0008710A0008710A0008710A0008A4
:10005000710A0008710A0008710A0008710A000894
:10006000710A000801090008710A0008710A0008F5
:10007000710A0008710A0008710A0008710A000874
:10008000710A0008710A0008710A0008710A000864
:10009000710A0008710A0008710A0008710A000854
:1000A000710A0008710A0008710A0008710A000844
:1000B00039090008710A000800000000710A0008F0
:1000C000710A00080000000000000000710A00082A
:1000D00000000000710A0008710A0008000000001A
:1000E000710A0008710A0008710A00080000000087
:1000F0000000000000000000000000000000000000
:0C01000000000000000000005FF808F1A3
:10010C0010B5054C237833B9044B13B10448AFF345
:10011C0000800123237010BD74000020000000003B
:10012C00D42E000808B5034B1BB103490348AFF3A9
:10013C00008008BD0000000078000020D42E0008CC
:10014C00034613F8012B002AFBD1181A013870470B
:10015C0080B582B000AF78607868FFF7F1FF034696
:10016C009AB214237968084802F035F87868FFF7DA
:10017C00E7FF03469AB214237968034802F0BDF8EE
:10018C0000BF0837BD4680BDA000002080B500AF81
:10019C000A4B4FF480710022184600F073FF382090
:1001AC0000F0A8F80E2000F0A5F8012000F0A2F84D
:1001BC00802000F09FF800BF80BD00BF000C014004
:1001CC0080B582B000AF0346FB71FB7903F00103ED
:1001DC00002B06D0464B01210122184600F052FF9D
:1001EC0005E0434B01210022184600F04BFFFB7940
:1001FC0003F00203002B06D03D4B022101221846CE
:10020C0000F040FF05E03A4B02210022184600F0B6
:10021C0039FFFB7903F00403002B06D0344B042187
:10022C000122184600F02EFF05E0314B042100227C
:10023C00184600F027FFFB7903F00803002B06D0CB
:10024C002B4B08210122184600F01CFF05E0284B1F
:10025C0008210022184600F015FFFB7903F010036B
:10026C00002B06D0224B10210122184600F00AFF69
:10027C0005E01F4B10210022184600F003FFFB790C
:10028C0003F02003002B06D0194B20210122184625
:10029C0000F0F8FE05E0164B20210022184600F075
:1002AC00F1FEFB7903F04003002B06D0104B4021EC
:1002BC000122184600F0E6FE05E00D4B402100221D
:1002CC00184600F0DFFE97F90730002B06DA084BD2
:1002DC0080210122184600F0D5FE05E0044B802158
:1002EC000022184600F0CEFE00BF0837BD4680BD88
:1002FC000008014080B582B000AF0346FB71FB796A
:10030C001846FFF75DFF164B80210022184600F0BF
:10031C00B9FE134B4FF480710022184600F0B2FE68
:10032C000F4B4FF400710122184600F0ABFE012078
:10033C0000F0FCFB0A4B4FF400710022184600F051
:10034C00A1FE012000F0F2FB054B4FF400710122DD
:10035C00184600F097FE00BF0837BD4680BD00BFB1
:10036C00000C014080B582B000AF0346FB71FB79F5
:10037C001846FFF725FF164B80210122184600F086
:10038C0081FE134B4FF480710022184600F07AFE68
:10039C000F4B4FF400710122184600F073FE012040
:1003AC0000F0C4FB0A4B4FF400710022184600F019
:1003BC0069FE012000F0BAFB054B4FF400710122DD
:1003CC00184600F05FFE00BF0837BD4680BD00BF79
:1003DC00000C014080B584B000AF78600023FB6056
:1003EC0009E0FB687A6813441B781846FFF7BAFFDC
:1003FC00FB680133FB60FB687A6813441B78002BA5
:10040C00EFD100BF00BF1037BD4680BD80B588B0AE
:10041C0002AF0346FB80FB881C4AA2FB0323DB0ACA
:10042C00FB82FB881A4AA2FB03235B099AB2184B86
:10043C00A3FB021359090B461B015B1A9B00D31A31
:10044C00BB82FA88124BA3FB021359090B461B0102
:10045C005B1A9B00D31A7B820E4A07F1080307CA6A
:10046C0003C31A70FA8AB98A7B8A07F108000093D1
:10047C000B46094902F0EEF807F108031846FFF79E
:10048C00A9FF00BF1837BD4680BD00BFC5B3A29100
:10049C0089888888FC2E0008EC2E000880B500AFF7
:1004AC0000F0E2FA00F028F800F0D8F800F0ACF810
:1004BC0000F05CF80C4801F0A3FA0C48FFF748FE7A
:1004CC00FFF764FE0020FFF7A1FF094B1B88002BF0
:1004DC00FBD0FFF75BFE074B1B881846FFF796FF18
:1004EC00034B00221A80F0E7E8000020082F0008D8
:1004FC00000000209C00002080B590B000AF07F1F8
:10050C00180328220021184602F09CF83B1D0022FB
:10051C001A605A609A60DA601A610123BB614FF469
:10052C008033FB6100237B6307F11803184600F04E
:10053C00FDFD0346002B01D000F00CF90F237B606E
:10054C000123BB600023FB6000233B6100237B6124
:10055C003B1D0021184601F069F80346002B01D021
:10056C0000F0F8F800BF4037BD4680BD80B586B0BE
:10057C0000AF07F1080300221A605A609A60DA6033
:10058C003B4600221A605A601E4B4FF080421A60A4
:10059C001C4B4FF448725A601A4B00229A60194B4C
:1005AC004FF4FA72DA60174B00221A61154B802255
:1005BC009A61144801F0D4F90346002B01D000F0E5
:1005CC00C9F84FF48053BB6007F1080319460D4876
:1005DC0001F06AFB0346002B01D000F0BBF80023AE
:1005EC003B6000237B603B461946064801F03CFD0E
:1005FC000346002B01D000F0ADF800BF1837BD4604
:10060C0080BD00BFE800002080B500AF114B124A3E
:10061C001A60104B4FF416525A600E4B00229A601F
:10062C000C4B0022DA600B4B00221A61094B0C2296
:10063C005A61084B00229A61064B0022DA61054888
:10064C0001F07CFD0346002B01D000F083F800BFC5
:10065C0080BD00BFA00000200038014080B588B0EC
:10066C0000AF07F1100300221A605A609A60DA603A
:10067C00344B9B69334A43F020039361314B9B69A4
:10068C0003F02003FB60FB682E4B9B692D4A43F063
:10069C00040393612B4B9B6903F00403BB60BB68A1
:1006AC00284B9B69274A43F008039361254B9B69B0
:1006BC0003F008037B607B680022FF21224800F0D6
:1006CC00E1FC002240F28121204800F0DBFC0122F9
:1006DC004FF480711D4800F0D5FCFF233B610123D2
:1006EC007B610023BB610223FB6107F110031946F8
:1006FC00154800F04DFB40F281333B6101237B61D7
:10070C000023BB610223FB6107F1100319460F485C
:10071C0000F03EFB08233B610D4B7B610123BB6169
:10072C0007F110031946094800F032FB00220021A2
:10073C00092000F0F6FA092000F00FFB00BF20376B
:10074C00BD4680BD0010024000080140000C014075
:10075C000000211080B400AF72B600BFFEE70000AD
:10076C0080B485B000AF154B9B69144A43F001036C
:10077C009361124B9B6903F00103BB60BB680F4B89
:10078C00DB690E4A43F08053D3610C4BDB6903F0F9
:10079C0080537B607B680A4B5B68FB60FB6823F0D3
:1007AC00E063FB60FB6843F08063FB60044AFB681A
:1007BC00536000BF1437BD4680BC70470010024028
:1007CC000000014080B584B000AF78607B681B6886
:1007DC00B3F1804F13D10C4BDB690B4A43F001038F
:1007EC00D361094BDB6903F00103FB60FB6800225A
:1007FC0000211C2000F095FA1C2000F0AEFA00BF7E
:10080C001037BD4680BD00BF0010024080B588B0D7
:10081C0000AF786007F1100300221A605A609A60EA
:10082C00DA607B681B681C4A934231D11B4B9B6975
:10083C001A4A43F480439361184B9B6903F4804339
:10084C00FB60FB68154B9B69144A43F004039361EE
:10085C00124B9B6903F00403BB60BB684FF400733D
:10086C003B6102237B610323FB6107F110031946F3
:10087C000B4800F08DFA4FF480633B6100237B61E1
:10088C000023BB6107F110031946054800F080FAFC
:10089C0000BF2037BD4680BD00380140001002402B
:1008AC000008014080B400AFFEE780B400AFFEE763
:1008BC0080B400AFFEE780B400AFFEE780B400AFB9
:1008CC00FEE780B400AF00BFBD4680BC704780B46B
:1008DC0000AF00BFBD4680BC704780B400AF00BF06
:1008EC00BD4680BC704780B500AF00F003F900BF77
:1008FC0080BD000080B500AF082000F0F5FB0121A1
:10090C00064800F0D7FB064B00221A80054B00224C
:10091C001A80054B01221A8000BF80BD000C0140DB
:10092C009C000020E40000200000002080B500AFF7
:10093C00174801F0B1F8164B1B68B3F1804F25D165
:10094C00144B1B88132B11D8134B00221A80114BFC
:10095C001B8801339AB20F4B1A800E4B1B880A2B43
:10096C0014D101210D4800F0A5FB0FE0094B00222A
:10097C001A800B4B1B8801339AB2094B1A80064B19
:10098C0001221A800121054800F094FB00BF80BDB4
:10099C00E8000020E400002000000020000C0140D2
:1009AC009C00002080B586B000AF7860144A154BCF
:1009BC00D31A7B617B693B61134B1B68002B02D103
:1009CC00114B124A1A60104B1A687B6813443A692F
:1009DC009A4207D201F00CFE03460C221A604FF02B
:1009EC00FF3309E0084B1B68FB60074B1A687B68F8
:1009FC001344054A1360FB6818461837BD4680BD82
:100A0C000028002000040000900000204801002075
:100A1C0080B400AF00BFBD4680BC70470C480D4988
:100A2C000D4A002302E0D458C4500433C4188C423D
:100A3C00F9D30A4A0A4C002301E013600432A242A3
:100A4C00FBD3FFF7E5FF01F0D9FDFFF727FD70475A
:100A5C000000002074000020802F0008740000208B
:100A6C0044010020FEE7000080B500AF084B1B6876
:100A7C00074A43F010031360032000F047F90F20DE
:100A8C0000F008F8FFF76CFE0023184680BD00BF8D
:100A9C000020024080B582B000AF7860124B1A681B
:100AAC00124B1B7819464FF47A73B3FBF1F3B2FB7C
:100ABC00F3F3184600F05FF90346002B01D0012335
:100ACC000EE07B680F2B0AD8002279684FF0FF30BC
:100ADC0000F027F9064A7B681360002300E001232D
:100AEC0018460837BD4680BD040000200C000020CD
:100AFC000800002080B400AF054B1B781A46054B4C
:100B0C001B681344034A136000BFBD4680BC70478A
:100B1C000C0000203001002080B400AF024B1B6899
:100B2C001846BD4680BC70473001002080B584B0AB
:100B3C0000AF7860FFF7F0FFB8607B68FB60FB6884
:100B4C00B3F1FF3F05D00A4B1B781A46FB681344E0
:100B5C00FB6000BFFFF7E0FF0246BB68D31AFA68E0
:100B6C009A42F7D800BF00BF1037BD4680BD00BF0A
:100B7C000C00002080B485B000AF78607B6803F077
:100B8C000703FB600C4BDB68BB60BA684FF6FF03D6
:100B9C001340BB60FB681A02BB68134343F0BF638E
:100BAC0043F40033BB60044ABB68D36000BF143706
:100BBC00BD4680BC704700BF00ED00E080B400AFC4
:100BCC00044BDB681B0A03F007031846BD4680BCC8
:100BDC00704700BF00ED00E080B483B000AF034667
:100BEC00FB7197F90730002B0BDBFB7903F01F022D
:100BFC00064997F907305B09012000FA02F241F827
:100C0C00232000BF0C37BD4680BC704700E100E0DC
:100C1C0080B483B000AF03463960FB7197F907309D
:100C2C00002B0ADB3B68DAB20C4997F9073012014A
:100C3C00D2B20B4483F800230AE03B68DAB20849CD
:100C4C00FB7903F00F03043B1201D2B20B441A766A
:100C5C0000BF0C37BD4680BC704700BF00E100E010
:100C6C0000ED00E080B489B000AFF860B9607A6044
:100C7C00FB6803F00703FB61FB69C3F10703042B5B
:100C8C0028BF0423BB61FB690433062B02D9FB6923
:100C9C00033B00E000237B614FF0FF32BB6902FA9B
:100CAC0003F3DA43BB681A407B699A404FF0FF317B
:100CBC007B6901FA03F3D9437B680B401343184655
:100CCC002437BD4680BC704780B582B000AF7860D9
:100CDC007B68013BB3F1807F01D301230FE00A4A0B
:100CEC007B68013B53600F214FF0FF30FFF790FF03
:100CFC00054B00229A60044B07221A600023184609
:100D0C000837BD4680BD00BF10E000E080B582B062
:100D1C0000AF78607868FFF72DFF00BF0837BD463D
:100D2C0080BD80B586B000AF0346B9607A60FB73B6
:100D3C0000237B61FFF742FF78617A68B9687869B4
:100D4C00FFF790FF024697F90F3011461846FFF750
:100D5C005FFF00BF1837BD4680BD80B582B000AFC5
:100D6C000346FB7197F907301846FFF735FF00BFB4
:100D7C000837BD4680BD80B582B000AF786078681A
:100D8C00FFF7A2FF034618460837BD4680BD00009A
:100D9C0080B48BB000AF7860396000237B62002395
:100DAC003B6248E101227B6A02FA03F3FB613B6878
:100DBC001B68FA691340BB61BA69FB699A4240F03F
:100DCC0037813B685B68A34A93425ED0A14A934249
:100DDC0075D8A14A934258D09F4A93426FD89F4AE4
:100DEC00934252D09D4A934269D89D4A93424CD02B
:100DFC009B4A934263D89B4A934246D0994A93426A
:100E0C005DD8122B2AD8122B59D801A252F823F0F4
:100E1C00970E0008710E0008830E0008C50E00081E
:100E2C00CB0E0008CB0E0008CB0E0008CB0E000832
:100E3C00CB0E0008CB0E0008CB0E0008CB0E000822
:100E4C00CB0E0008CB0E0008CB0E0008CB0E000812
:100E5C00CB0E0008790E00088D0E0008824A9342D2
:100E6C0013D02CE03B68DB683B6229E03B68DB6815
:100E7C0004333B6224E03B68DB6808333B621FE0D1
:100E8C003B68DB680C333B621AE03B689B68002BC9
:100E9C0002D104233B6213E03B689B68012B05D114
:100EAC0008233B627B68FA691A6109E008233B62FC
:100EBC007B68FA695A6103E000233B6200E000BFE3
:100ECC00BB69FF2B01D87B6801E07B6804337B6135
:100EDC00BB69FF2B02D87B6A9B0002E07B6A083B54
:100EEC009B003B617B691A680F213B6901FA03F394
:100EFC00DB431A40396A3B6901FA03F31A437B69F5
:100F0C001A603B685B6803F08053002B00F0908004
:100F1C00564B9B69554A43F001039361534B9B69B4
:100F2C0003F00103BB60BB68514A7B6A9B08023328
:100F3C0052F82330FB607B6A03F003039B000F2203
:100F4C0002FA03F3DB43FA681340FB607B68494AFF
:100F5C0093420DD07B68484A934207D07B68474A3E
:100F6C00934201D1022304E0032302E0012300E0B9
:100F7C0000237A6A02F0030292009340FA6813434A
:100F8C00FB603B497B6A9B080233FA6841F82320DB
:100F9C003B685B6803F48033002B06D0384B1A682F
:100FAC003749BB6913430B6006E0354B1A68BB69C4
:100FBC00DB43334913400B603B685B6803F400333D
:100FCC00002B06D02E4B5A682D49BB6913434B603E
:100FDC0006E02B4B5A68BB69DB43294913404B6035
:100FEC003B685B6803F48013002B06D0244B9A6893
:100FFC002349BB6913438B6006E0214B9A68BB699C
:10100C00DB431F4913408B603B685B6803F40013A0
:10101C00002B06D01A4BDA681949BB691343CB6015
:10102C0006E0174BDA68BB69DB4315491340CB600C
:10103C007B6A01337B623B681A687B6A22FA03F392
:10104C00002B7FF4AFAE00BF00BF2C37BD4680BC79
:10105C00704700BF00003210000031100000221059
:10106C0000002110000012100000111000100240AE
:10107C000000014000080140000C0140001001403C
:10108C000004014080B483B000AF78600B467B80D5
:10109C0013467B707B78002B03D07A887B681A61AF
:1010AC0003E07B881A047B681A6100BF0C37BD46CD
:1010BC0080BC704780B485B000AF78600B467B80F5
:1010CC007B68DB68FB607A88FB6813401A04FB685A
:1010DC00D9437B880B401A437B681A6100BF1437D5
:1010EC00BD4680BC7047000080B582B000AF03469F
:1010FC00FB80084B5A69FB881340002B06D0054A2D
:10110C00FB885361FB88184600F006F800BF0837CF
:10111C00BD4680BD0004014080B483B000AF0346DF
:10112C00FB8000BF0C37BD4680BC704780B586B0D5
:10113C0000AF78607B68002B01D101236CE27B68E7
:10114C001B6803F00103002B00F08780924B5B6857
:10115C0003F00C03042B0CD08F4B5B6803F00C03D7
:10116C00082B12D18C4B5B6803F48033B3F5803FB2
:10117C000BD1894B1B6803F40033002B6CD07B68BC
:10118C005B68002B68D1012346E27B685B68B3F592
:10119C00803F06D1804B1B687F4A43F48033136039
:1011AC002EE07B685B68002B0CD17B4B1B687A4A6A
:1011BC0023F480331360784B1B68774A23F4802325
:1011CC0013601DE07B685B68B3F5A02F0CD1724BEC
:1011DC001B68714A43F4802313606F4B1B686E4A83
:1011EC0043F4803313600BE06B4B1B686A4A23F4A7
:1011FC0080331360684B1B68674A23F480231360A9
:10120C007B685B68002B13D0FFF786FC386108E025
:10121C00FFF782FC02463B69D31A642B01D90323E6
:10122C00FAE15D4B1B6803F40033002BF0D014E0A3
:10123C00FFF772FC386108E0FFF76EFC02463B6971
:10124C00D31A642B01D90323E6E1534B1B6803F437
:10125C000033002BF0D100E000BF7B681B6803F06B
:10126C000203002B63D04C4B5B6803F00C03002B88
:10127C000BD0494B5B6803F00C03082B1CD1464B7D
:10128C005B6803F48033002B16D1434B1B6803F0CF
:10129C000203002B05D07B681B69012B01D00123B5
:1012AC00BAE13D4B1B6823F0F8027B685B69DB00FD
:1012BC00394913430B603AE07B681B69002B20D043
:1012CC00364B01221A60FFF727FC386108E0FFF764
:1012DC0023FC02463B69D31A022B01D903239BE161
:1012EC002D4B1B6803F00203002BF0D02A4B1B681C
:1012FC0023F0F8027B685B69DB00274913430B6022
:10130C0015E0264B00221A60FFF706FC386108E056
:10131C00FFF702FC02463B69D31A022B01D90323C7
:10132C007AE11D4B1B6803F00203002BF0D17B68A4
:10133C001B6803F00803002B3AD07B689B69002BD9
:10134C0019D0174B01221A60FFF7E6FB386108E051
:10135C00FFF7E2FB02463B69D31A022B01D90323A8
:10136C005AE10D4B5B6A03F00203002BF0D0012015
:10137C0000F0D8FA1CE00A4B00221A60FFF7CCFBF5
:10138C0038610FE0FFF7C8FB02463B69D31A022B0A
:10139C0008D9032340E100BF001002400000424284
:1013AC00800442429E4B5B6A03F00203002BE9D19E
:1013BC007B681B6803F00403002B00F0A68000235D
:1013CC00FB75974BDB6903F08053002B0DD1944BCD
:1013DC00DB69934A43F08053D361914BDB6903F093
:1013EC008053BB60BB680123FB758E4B1B6803F4F9
:1013FC008073002B18D18B4B1B688A4A43F4807383
:10140C001360FFF789FB386108E0FFF785FB0246A4
:10141C003B69D31A642B01D90323FDE0814B1B6874
:10142C0003F48073002BF0D07B68DB68012B06D1B2
:10143C007B4B1B6A7A4A43F0010313622DE07B68F5
:10144C00DB68002B0CD1764B1B6A754A23F0010329
:10145C001362734B1B6A724A23F0040313621CE081
:10146C007B68DB68052B0CD16D4B1B6A6C4A43F017
:10147C00040313626A4B1B6A694A43F0010313624B
:10148C000BE0674B1B6A664A23F001031362644B43
:10149C001B6A634A23F0040313627B68DB68002B2E
:1014AC0015D0FFF739FB38610AE0FFF735FB024630
:1014BC003B69D31A41F28832934201D90323ABE042
:1014CC00574B1B6A03F00203002BEED014E0FFF71E
:1014DC0023FB38610AE0FFF71FFB02463B69D31A76
:1014EC0041F28832934201D9032395E04C4B1B6A9D
:1014FC0003F00203002BEED1FB7D012B05D1484BF1
:10150C00DB69474A23F08053D3617B68DB69002B8E
:10151C0000F08180424B5B6803F00C03082B61D018
:10152C007B68DB69022B46D13F4B00221A60FFF728
:10153C00F3FA386108E0FFF7EFFA02463B69D31A79
:10154C00022B01D9032367E0354B1B6803F00073B2
:10155C00002BF0D17B681B6AB3F5803F08D1304B70
:10156C005B6823F400327B689B682D4913434B6006
:10157C002B4B5B6823F474127B68196A7B685B6A7B
:10158C000B43274913434B60274B01221A60FFF78B
:10159C00C3FA386108E0FFF7BFFA02463B69D31A79
:1015AC00022B01D9032337E01D4B1B6803F000739A
:1015BC00002BF0D02FE01C4B00221A60FFF7ACFA86
:1015CC00386108E0FFF7A8FA02463B69D31A022BF0
:1015DC0001D9032320E0124B1B6803F00073002B8E
:1015EC00F0D118E07B68DB69012B01D1012313E0FA
:1015FC000B4B5B68FB60FB6803F480327B681B6AF7
:10160C009A4206D1FB6803F470127B685B6A9A42BB
:10161C0001D0012300E0002318461837BD4680BDD9
:10162C0000100240007000406000424280B584B05F
:10163C0000AF786039607B68002B01D10123D0E0CA
:10164C006A4B1B6803F007033A689A4210D9674B40
:10165C001B6823F0070265493B6813430B60634B1F
:10166C001B6803F007033A689A4201D00123B8E0E3
:10167C007B681B6803F00203002B20D07B681B687F
:10168C0003F00403002B05D0594B5B68584A43F414
:10169C00E06353607B681B6803F00803002B05D0E4
:1016AC00534B5B68524A43F460535360504B5B6836
:1016BC0023F0F0027B689B684D4913434B607B68B9
:1016CC001B6803F00103002B40D07B685B68012B87
:1016DC0007D1474B1B6803F40033002B15D10123B2
:1016EC007FE07B685B68022B07D1414B1B6803F0E2
:1016FC000073002B09D1012373E03D4B1B6803F0F1
:10170C000203002B01D101236BE0394B5B6823F002
:10171C0003027B685B68364913434B60FFF7FCF9A7
:10172C00F8600AE0FFF7F8F90246FB68D31A41F2B9
:10173C008832934201D9032353E02D4B5B6803F0AD
:10174C000C027B685B689B009A42EBD1274B1B68B1
:10175C0003F007033A689A4210D2244B1B6823F01B
:10176C00070222493B6813430B60204B1B6803F0B4
:10177C0007033A689A4201D0012332E07B681B6868
:10178C0003F00403002B08D0194B5B6823F4E062D0
:10179C007B68DB68164913434B607B681B6803F05E
:1017AC000803002B09D0124B5B6823F460527B6852
:1017BC001B69DB000E4913434B6000F021F8024615
:1017CC000B4B5B681B0903F00F030A49CB5C22FA35
:1017DC0003F3094A1360094B1B681846FFF75AF9C3
:1017EC00002318461037BD4680BD00BF00200240C4
:1017FC00001002402C2F00080400002008000020DC
:10180C0090B48AB000AF2A4B3C1D0FCB84E80F007C
:10181C0040F201233B800023FB610023BB610023CA
:10182C007B6200237B6100233B62224B5B68FB6184
:10183C00FB6903F00C03042B02D0082B03D02DE022
:10184C001D4B3B622DE0FB699B0C03F00F0307F172
:10185C002802134413F8243C7B61FB6903F48033A6
:10186C00002B13D0134B5B685B0C03F0010307F1E7
:10187C002802134413F8283CBB617B690E4A02FB17
:10188C0003F2BB69B2FBF3F37B6204E07B690B4AA6
:10189C0002FB03F37B627B6A3B6202E0064B3B621A
:1018AC0000BF3B6A18462837BD4690BC704700BF46
:1018BC001C2F00080010024000127A0000093D00A5
:1018CC0080B400AF024B1B681846BD4680BC704705
:1018DC000400002080B500AFFFF7F2FF0246054B75
:1018EC005B681B0A03F007030349CB5C22FA03F382
:1018FC00184680BD001002403C2F000880B500AF98
:10190C00FFF7DEFF0246054B5B68DB0A03F00703BB
:10191C000349CB5C22FA03F3184680BD0010024049
:10192C003C2F000880B485B000AF78600A4B1B6870
:10193C000A4AA2FB03235B0A7A6802FB03F3FB60EF
:10194C0000BFFB685A1EFA60002BF9D100BF00BF24
:10195C001437BD4680BC704704000020D34D621084
:10196C0080B582B000AF78607B68002B01D1012379
:10197C0041E07B6893F83D30DBB2002B06D17B68ED
:10198C00002283F83C207868FEF71CFF7B6802225B
:10199C0083F83D207B681A687B680433194610462F
:1019AC0000F074FA7B68012283F846207B680122E0
:1019BC0083F83E207B68012283F83F207B6801225C
:1019CC0083F840207B68012283F841207B68012248
:1019DC0083F842207B68012283F843207B68012234
:1019EC0083F844207B68012283F845207B68012220
:1019FC0083F83D20002318460837BD4680BD000003
:101A0C0080B485B000AF78607B6893F83D30DBB272
:101A1C00012B01D0012335E07B68022283F83D20A5
:101A2C007B681B68DA687B681B6842F00102DA602D
:101A3C007B681B68164A934209D07B681B68B3F11C
:101A4C00804F04D07B681B68124A934211D17B688B
:101A5C001B689B6803F00703FB60FB68062B10D028
:101A6C007B681B681A687B681B6842F001021A606D
:101A7C0007E07B681B681A687B681B6842F00102F0
:101A8C001A60002318461437BD4680BC704700BF4F
:101A9C00002C01400004004080B582B000AF78609B
:101AAC007B681B681B6903F00203022B22D17B6845
:101ABC001B68DB6803F00203022B1BD17B681B68DD
:101ACC006FF002021A617B6801221A777B681B682F
:101ADC009B6903F00303002B03D0786800F0BAF97C
:101AEC0005E0786800F0ADF9786800F0BCF97B6827
:101AFC0000221A777B681B681B6903F00403042B14
:101B0C0022D17B681B68DB6803F00403042B1BD118
:101B1C007B681B686FF004021A617B6802221A77DB
:101B2C007B681B689B6903F44073002B03D07868B7
:101B3C0000F090F905E0786800F083F9786800F01F
:101B4C0092F97B6800221A777B681B681B6903F08B
:101B5C000803082B22D17B681B68DB6803F00803A1
:101B6C00082B1BD17B681B686FF008021A617B681D
:101B7C0004221A777B681B68DB6903F00303002BD4
:101B8C0003D0786800F066F905E0786800F059F940
:101B9C00786800F068F97B6800221A777B681B680C
:101BAC001B6903F01003102B22D17B681B68DB68C8
:101BBC0003F01003102B1BD17B681B686FF0100215
:101BCC001A617B6808221A777B681B68DB6903F44F
:101BDC004073002B03D0786800F03CF905E078687E
:101BEC0000F02FF9786800F03EF97B6800221A7734
:101BFC007B681B681B6903F00103012B0ED17B680A
:101C0C001B68DB6803F00103012B07D17B681B68A1
:101C1C006FF001021A61786800F00AF97B681B68A2
:101C2C001B6903F08003802B0ED17B681B68DB687B
:101C3C0003F08003802B07D17B681B686FF0800258
:101C4C001A61786800F071FA7B681B681B6903F0F5
:101C5C004003402B0ED17B681B68DB6803F040030C
:101C6C00402B07D17B681B686FF040021A617868C3
:101C7C0000F002F97B681B681B6903F02003202B22
:101C8C000ED17B681B68DB6803F02003202B07D187
:101C9C007B681B686FF020021A61786800F03CFAD0
:101CAC0000BF0837BD4680BD80B584B000AF7860FA
:101CBC0039607B6893F83C30012B01D10223B3E0EF
:101CCC007B68012283F83C207B68022283F83D204C
:101CDC007B681B689B68FB60FB6823F07703FB60E9
:101CEC00FB6823F47F43FB607B681B68FA689A608F
:101CFC003B681B68B3F5005F3ED0B3F5005F00F2A4
:101D0C008780B3F5805F00F08580B3F5805F7FD866
:101D1C00702B1AD0702B7BD8602B50D0602B77D8BF
:101D2C00502B3CD0502B73D8402B58D0402B6FD815
:101D3C00302B64D0302B6BD8202B60D0202B67D865
:101D4C00002B5CD0102B5AD062E07B6818683B6883
:101D5C0099683B685A683B68DB6800F066F97B68F9
:101D6C001B689B68FB60FB6843F07703FB607B6838
:101D7C001B68FA689A604EE07B6818683B68996843
:101D8C003B685A683B68DB6800F04FF97B681B685E
:101D9C009A687B681B6842F480429A603BE07B68DF
:101DAC0018683B6859683B68DB681A4600F0C6F84F
:101DBC007B681B685021184600F01DF92BE07B68EE
:101DCC0018683B6859683B68DB681A4600F0E4F811
:101DDC007B681B686021184600F00DF91BE07B68DE
:101DEC0018683B6859683B68DB681A4600F0A6F82F
:101DFC007B681B684021184600F0FDF80BE07B68FF
:101E0C001A683B681B681946104600F0F4F802E0AB
:101E1C0000BF00E000BF7B68012283F83D207B6897
:101E2C00002283F83C20002318461037BD4680BDA5
:101E3C0080B483B000AF786000BF0C37BD4680BC67
:101E4C00704780B483B000AF786000BF0C37BD46DC
:101E5C0080BC704780B483B000AF786000BF0C3793
:101E6C00BD4680BC704780B483B000AF786000BFC3
:101E7C000C37BD4680BC704780B483B000AF78602F
:101E8C0000BF0C37BD4680BC7047000080B485B0E5
:101E9C0000AF786039607B681B68FB607B68254A03
:101EAC00934207D07B68B3F1804F03D07B68224A02
:101EBC00934208D1FB6823F07003FB603B685B68BE
:101ECC00FA681343FB607B681A4A934207D07B681D
:101EDC00B3F1804F03D07B68174A934208D1FB685B
:101EEC0023F44073FB603B68DB68FA681343FB60C8
:101EFC00FB6823F080023B685B691343FB607B68E3
:101F0C00FA681A603B689A687B68DA623B681A6800
:101F1C007B689A627B68074A934203D13B681A69D3
:101F2C007B681A637B6801225A6100BF1437BD4677
:101F3C0080BC7047002C01400004004080B487B086
:101F4C0000AFF860B9607A60FB681B6A7B61FB6864
:101F5C001B6A23F00102FB681A62FB689B693B61F8
:101F6C003B6923F0F0033B617B681B013A69134327
:101F7C003B617B6923F00A037B617A69BB6813437D
:101F8C007B61FB683A699A61FB687A691A6200BFE7
:101F9C001C37BD4680BC704780B487B000AFF8607A
:101FAC00B9607A60FB681B6A23F01002FB681A6246
:101FBC00FB689B697B61FB681B6A3B617B6923F453
:101FCC0070437B617B681B037A6913437B613B69BC
:101FDC0023F0A0033B61BB681B013A6913433B61CF
:101FEC00FB687A699A61FB683A691A6200BF1C3710
:101FFC00BD4680BC704780B485B000AF7860396056
:10200C007B689B68FB60FB6823F07003FB603A689D
:10201C00FB68134343F00703FB607B68FA689A6024
:10202C0000BF1437BD4680BC704780B487B000AF8A
:10203C00F860B9607A603B60FB689B687B617B6988
:10204C0023F47F437B613B681A027B681A43BB68AD
:10205C0013437A6913437B61FB687A699A6000BF0A
:10206C001C37BD4680BC704780B485B000AF78602B
:10207C0039607B6893F83C30012B01D1022341E09D
:10208C007B68012283F83C207B68022283F83D2088
:10209C007B681B685B68FB607B681B689B68BB602C
:1020AC00FB6823F07003FB603B681B68FA68134302
:1020BC00FB607B681B68FA685A607B681B68144A73
:1020CC00934209D07B681B68B3F1804F04D07B68C6
:1020DC001B68104A93420CD1BB6823F08003BB6091
:1020EC003B685B68BA681343BB607B681B68BA6863
:1020FC009A607B68012283F83D207B68002283F87C
:10210C003C20002318461437BD4680BC704700BFE6
:10211C00002C01400004004080B483B000AF786014
:10212C0000BF0C37BD4680BC704780B483B000AF95
:10213C00786000BF0C37BD4680BC704780B582B05C
:10214C0000AF78607B68002B01D101233FE07B68F6
:10215C0093F83D30DBB2002B06D17B68002283F86C
:10216C003C207868FEF752FB7B68242283F83D20E4
:10217C007B681B68DA687B681B6822F40052DA60A3
:10218C00786800F0A7F97B681B681A697B681B6884
:10219C0022F490421A617B681B685A697B681B6841
:1021AC0022F02A025A617B681B68DA687B681B681C
:1021BC0042F40052DA607B6800221A647B682022A9
:1021CC0083F83D207B68202283F83E2000231846AC
:1021DC000837BD4680BD80B58AB002AFF860B960E3
:1021EC003B601346FB8000237B61FB6893F83D301A
:1021FC00DBB2202B7CD1BB68002B02D0FB88002BE0
:10220C0001D1012375E0FB6893F83C30012B01D11F
:10221C0002236EE0FB68012283F83C20FB6800225D
:10222C001A64FB68212283F83D20FEF775FC786167
:10223C00FB68FA889A84FB68FA88DA84FB689B68E6
:10224C00B3F5805F08D1FB681B69002B04D1002318
:10225C00FB61BB68BB6103E0BB68FB610023BB6136
:10226C00FB68002283F83C202AE03B6800937B69E2
:10227C0000228021F86800F0E2F80346002B01D020
:10228C00032336E0FB69002B0BD1BB691B881A4674
:10229C00FB681B68C2F308025A60BB690233BB615E
:1022AC0007E0FB691A78FB681B685A60FB6901330D
:1022BC00FB61FB68DB8C9BB2013B9AB2FB68DA8456
:1022CC00FB68DB8C9BB2002BCFD13B6800937B6906
:1022DC0000224021F86800F0B2F80346002B01D030
:1022EC00032306E0FB68202283F83D20002300E056
:1022FC00022318462037BD4680BD80B58AB002AF98
:10230C00F860B9603B601346FB8000237B61FB687F
:10231C0093F83E30DBB2202B40F08C80BB68002B56
:10232C0002D0FB88002B01D1012384E0FB6893F8D9
:10233C003C30012B01D102237DE0FB68012283F8A4
:10234C003C20FB6800221A64FB68222283F83E20A2
:10235C00FB6800221A63FEF7DFFB7861FB68FA88E2
:10236C009A85FB68FA88DA85FB689B68B3F5805F11
:10237C0008D1FB681B69002B04D10023FB61BB68EF
:10238C00BB6103E0BB68FB610023BB61FB680022FF
:10239C0083F83C2043E03B6800937B6900222021BA
:1023AC00F86800F04CF80346002B01D0032342E000
:1023BC00FB69002B0CD1FB681B685B689BB2C3F3F9
:1023CC0008039AB2BB691A80BB690233BB611FE078
:1023DC00FB689B68B3F5805F07D0FB689B68002B9C
:1023EC000AD1FB681B69002B06D1FB681B685B6874
:1023FC00DAB2FB691A7008E0FB681B685B68DBB239
:10240C0003F07F03DAB2FB691A70FB690133FB61DD
:10241C00FB68DB8D9BB2013B9AB2FB68DA85FB68EB
:10242C00DB8D9BB2002BB6D1FB68202283F83E20BB
:10243C00002300E0022318462037BD4680BD80B53E
:10244C0084B000AFF860B9603B601346FB712CE0C0
:10245C00BB69B3F1FF3F28D0BB69002B07D0FEF757
:10246C005BFB02463B68D31ABA699A421DD2FB68E1
:10247C001B68DA68FB681B6822F4D072DA60FB68B0
:10248C001B685A69FB681B6822F001025A61FB68E1
:10249C00202283F83D20FB68202283F83E20FB6835
:1024AC00002283F83C2003230FE0FB681B681A68AA
:1024BC00BB681340BA689A420CBF01230023DBB2FD
:1024CC001A46FB799A42C3D0002318461037BD46F2
:1024DC0080BD000080B584B000AF78607B681B685D
:1024EC001B6923F440517B68DA687B681B680A43DC
:1024FC001A617B689A687B681B691A437B685B6905
:10250C001343BB607B681B68DB6823F4B05323F078
:10251C000C037A681268B9680B43D3607B681B683C
:10252C005B6923F440717B689A697B681B680A437A
:10253C005A617B681B682C4A934203D1FFF7DEF982
:10254C00F86002E0FFF7C6F9F860FA6813469B00E2
:10255C0013449A001A447B685B689B00B2FBF3F34C
:10256C00224AA2FB03235B091901FA6813469B005C
:10257C0013449A001A447B685B689B00B2FBF3F22D
:10258C001A4BA3FB02035B09642000FB03F3D31A71
:10259C001B013233154AA2FB03235B0903F0F00342
:1025AC001944FA6813469B0013449A001A447B683A
:1025BC005B689B00B2FBF3F20C4BA3FB02035B09C1
:1025CC00642000FB03F3D31A1B013233074AA2FB2E
:1025DC0003235B0903F00F027B681B680A449A60B3
:1025EC0000BF1037BD4680BD003801401F85EB5140
:1025FC00014B1868704700BF1000002070B5002612
:10260C000C4D0D4C641BA410A64209D100F05CFCCF
:10261C0000260A4D0A4C641BA410A64205D170BDBD
:10262C0055F8043B98470136EEE755F8043B9847BC
:10263C000136F2E7782F0008782F0008782F000871
:10264C007C2F000803460244934200D1704703F8E4
:10265C00011BF9E70EB46FF0004100B59CB01DAB47
:10266C0002900690079104910848094953F8042BED
:10267C000591006802A9019300F068F80022029B02
:10268C001A701CB05DF804EB03B07047100000200A
:10269C000802FFFF2DE9F0478E6882469E420C46E9
:1026AC0090461F4638D88A8912F4906F32D025682C
:1026BC0009690133A5EB010965694B4405EB450537
:1026CC0005EBD5756D109D4238BF1D46530531D5B0
:1026DC00294600F053FB064650B90C234FF0FF304F
:1026EC00CAF80030A38943F04003A381BDE8F0870A
:1026FC004A46216900F0CEFAA38923F4906343F093
:10270C008003A38126614E4426603E466561A5EB9D
:10271C000905A560BE4200D93E46324641462068B6
:10272C0000F0C6FAA36822689B1B32440020A36009
:10273C002260DBE72A4600F07BFB06460028E1D14D
:10274C005046216900F0CEFAC7E700002DE9F04FA2
:10275C0098468B8907461B060D4614469DB00ED530
:10276C000B6963B9402100F009FB2860286120B98E
:10277C000C233B604FF0FF30D1E040236B61002312
:10278C00099320238DF8293030234FF00109CDF81F
:10279C000C80DFF8A4818DF82A3023469A4613F872
:1027AC00012B0AB1252AF9D1BAEB040B0BD05B46ED
:1027BC00224629463846FFF76DFF013000F0AA800B
:1027CC00099A5A4409929AF80030002B00F0A28022
:1027DC0000234FF0FF32CDE905230AF1010A0493DF
:1027EC0007938DF853301A935446052214F8011BA5
:1027FC00514800F041FA049AD8B9D00644BF2023BE
:10280C008DF85330110744BF2B238DF853309AF8B1
:10281C0000302A2B15D0544600204FF00A0C079A92
:10282C00214611F8013B303B092B4ED9B0B1079230
:10283C0014E0A0EB080309FA03F31343A246049334
:10284C00D2E7039B191D1B680391002BBBBF5B4296
:10285C0042F0020207930793B8BF049223782E2B01
:10286C000CD163782A2B35D1039B02341A1D1B68BB
:10287C000392002BB8BF4FF0FF330593DFF8C8A0CD
:10288C0003225046217800F0F7F940B14023A0EB29
:10289C000A0003FA00F0049B01340343049314F878
:1028AC00011B062225488DF8281000F0E5F90028B8
:1028BC0038D0234B1BBB039B073323F00703083390
:1028CC000393099B3344099367E70C4601200CFBE7
:1028DC000232A5E700234FF00A0C19460134059388
:1028EC00204610F8012B303A092A03D9002BC5D009
:1028FC000591C3E7044601230CFB0121F0E703AB70
:10290C0000932A4638460F4B04A9AFF30080421CB3
:10291C000646D6D1AB895B063FF52CAF09981DB0A6
:10292C00BDE8F08F03AB00932A463846054B04A94B
:10293C0000F07CF8EBE700BF442F00084E2F000896
:10294C0000000000A12600084A2F00082DE9F047DE
:10295C00164699468A680B6907469342B8BF1346D8
:10296C00336091F843200C46DDF820800AB1013326
:10297C0033602368990642BF33680233336025689D
:10298C0015F0060506D104F1190AE36832689B1AA2
:10299C00AB4228DC94F84320131E226818BF012395
:1029AC0092062DD44946384604F14302C047013003
:1029BC0020D02368E56803F00603042B18BF00251C
:1029CC0032684FF00006A36808BFAD1A226908BF31
:1029DC0025EAE5759342C4BF9B1AED181A34B5422B
:1029EC001AD1002008E00123524649463846C04718
:1029FC00013003D14FF0FF30BDE8F0870135C4E75B
:102A0C003020E11881F843005A1C94F845102244F8
:102A1C00023382F84310C5E7012322464946384663
:102A2C00C0470130E6D00136D9E700002DE9FF4759
:102A3C000C46277E9146782F80469A460C9904F1D5
:102A4C00430207D8622F0AD8002F00F0D980582FE4
:102A5C0000F0A48004F1420684F842703AE0A7F139
:102A6C006303152BF6D801A050F823F0D12A0008E7
:102A7C00E52A0008612A0008612A0008612A00087A
:102A8C00612A0008E52A0008612A0008612A00086A
:102A9C00612A0008612A0008F32B0008152B000896
:102AAC00D52B0008612A0008612A0008152C0008A3
:102ABC00612A0008152B0008612A0008612A000809
:102ACC00DD2B00080B6804F142061A1D1B680A6016
:102ADC0084F842300123A4E0256808682E0600F132
:102AEC0004030AD505680B60002D03DA2D236D4213
:102AFC0084F843300A235E4819E015F0400F05684E
:102B0C000B6018BF2DB2EFE70B682568181D086025
:102B1C00280601D51D6802E06906FBD51D886F2FBC
:102B2C000CBF08230A235248002184F8431066681E
:102B3C00002EA8BF2168A660A4BF21F0040121606B
:102B4C000DB9002E4DD01646B5FBF3F103FB115712
:102B5C00C75D06F8017D2F46BB420D46F4D9082B04
:102B6C000BD12368DF0708D5236961689942DEBF62
:102B7C00302306F8013C06F1FF36921B22614B46CE
:102B8C0021464046CDF800A003AAFFF7DFFE013036
:102B9C004CD14FF0FF3004B0BDE8F087344884F8D6
:102BAC0045700E68236856F8045B1F060E6014D53A
:102BBC00D90744BF43F0200323601DB9236823F0D9
:102BCC00200323601023AFE7236843F02003236026
:102BDC007823284884F84530E3E75E0648BFADB259
:102BEC00E6E71646BBE70B6826681D1D60690D609D
:102BFC0035061B6801D5186002E07106FBD51880FC
:102C0C00002316462361BAE70B681A1D0A601E687A
:102C1C0000213046626800F02FF808B1801B60601C
:102C2C0063682361002384F84330A8E732464946A1
:102C3C0040462369D0470130ABD023689B0713D49F
:102C4C00E068039B9842B8BF1846A4E701233246BC
:102C5C0049464046D04701309BD00135E368039983
:102C6C005B1AAB42F2DCEBE7002504F11906F5E741
:102C7C00552F0008662F0008034610B5C9B2024450
:102C8C009342184601D1002003E0047801338C42B2
:102C9C00F6D110BD0A44914200F1FF3300D17047C8
:102CAC0010B511F8014B914203F8014FF9D110BD49
:102CBC00884210B501EB020402D98442234607D89E
:102CCC00431EA14208D011F8012B03F8012FF8E79D
:102CDC00014602448A4200D110BD13F8014D02F89E
:102CEC00014DF7E738B50546002943D051F8043CAF
:102CFC000C1F002BB8BFE41800F0D0F81E4A136864
:102D0C00104633B9636014602846BDE8384000F0C3
:102D1C00CBB8A3420AD921686218934201BF1A6842
:102D2C005B685218226063600460EDE71A465B68CA
:102D3C000BB1A342FAD911685018A0420BD12068EC
:102D4C000144501883421160DED118685B6801445D
:102D5C0011605360D8E702D90C232B60D4E72068AC
:102D6C0021188B4201BF19685B68091821606360E8
:102D7C005460C9E738BD00BF94000020F8B5CD1CE5
:102D8C0025F0030508350C2D38BF0C25002D064603
:102D9C0001DBA94203D90C2333600020F8BD00F0FD
:102DAC007DF821490A6814469CB9204F3B6823B929
:102DBC002146304600F062F838602946304600F073
:102DCC005DF8431C23D10C233046336000F06CF8C3
:102DDC00E3E723685B1B17D40B2B03D923601C443C
:102DEC00256004E06368A2420CBF0B605360304660
:102DFC0000F05AF804F10B00231D20F00700C21A52
:102E0C00CCD01B1AA350C9E722466468CCE7C41C7B
:102E1C0024F00304A042E3D0211A304600F02EF82F
:102E2C000130DDD1CFE700BF9400002098000020D6
:102E3C00F8B5074614460E4621B91146BDE8F840D0
:102E4C00FFF79CBF22B9FFF74DFF25462846F8BD7A
:102E5C0000F030F8A0420FD221463846FFF78EFF23
:102E6C0005460028F2D031462246FFF713FF3146C3
:102E7C003846FFF737FFE9E73546E7E738B5002373
:102E8C00054D044608462B60FDF78CFD431C02D112
:102E9C002B6803B1236038BD34010020014800F0D9
:102EAC0011B800BF3C010020014800F00CB800BF75
:102EBC003C01002051F8043C181F002BBCBF0B58E0
:102ECC00C018704770477047F8B500BFF8BC08BC15
:102EDC009E467047F8B500BFF8BC08BC9E467047CC
:102EEC00253032753A253032753A2530327500006E
:102EFC0030303A30303A30300000000055415254F6
:102F0C0020496E697469616C697A656421000000FE
:102F1C0002030405060708090A0B0C0D0E0F10100E
:102F2C00000000000000000001020304060708096D
:102F3C000000000001020304232D302B2000686CDC
:102F4C004C006566674546470030313233343536C0
:102F5C0037383941424344454600303132333435F9
:0C2F6C0036373839616263646566000026
:042F7800310100081B
:042F7C000D0100083B
:102F8000010000000024F400100000000100000017
:102F900014000020000000000000000000000000FD
:102FA0000000000000000000000000000000000021
:102FB0000000000000000000000000000000000011
:102FC0000000000000000000000000000000000001
:102FD00000000000000000000000000000000000F1
:102FE00000000000000000000000000000000000E1
:042FF00000000000DD
:0400000508000A29BC
:00000001FF
